:020000040800F2
:10000000D81B0120A1020008A1D20008D399000842
:1000100059D200086B130008394B0108000000009A
:10002000000000000000000000000000E1140108D2
:100030008F1A000800000000F90C0008691501087B
:10004000DB020008DB020008DB020008A50D010846
:10005000DB020008DB020008DB020008DB0200080C
:10006000DB020008DB020008DB020008DB020008FC
:10007000DB020008DB020008DB020008DB020008EC
:10008000DB020008DB020008DB020008DB020008DC
:10009000DB020008DB020008DB020008DB020008CC
:1000A000DB020008DB020008DB020008DB020008BC
:1000B000DB0200085D3B0108753B0108DB0200081C
:1000C000DB020008DB020008DB020008DB0200089C
:1000D000DB020008C54A0108DB020008DB02000859
:1000E000DB020008850C0108DB020008DB020008C7
:1000F000DB020008DB020008DB020008DB0200086C
:10010000DB020008DB020008DB020008DB0200085B
:10011000DB020008DB020008DB020008DB0200084B
:10012000DB020008DB020008DB020008DB0200083B
:10013000DB020008DB020008DB020008DB0200082B
:10014000DB020008DB020008DB020008DB0200081B
:10015000DB020008DB020008DB020008DB0200080B
:10016000DB020008DB020008DB020008DB020008FB
:10017000DB020008DB020008DB02000800000000D0
:10018000DB020008DB020008DB020008DB020008DB
:10019000DB020008DB020008DB020008DB020008CB
:1001A000DB020008DB020008DB02000800F002F8B6
:1001B00000F067F80AA090E8000C82448344AAF19A
:1001C0000107DA4501D100F05CF8AFF2090EBAE898
:1001D0000F0013F0010F18BFFB1A43F0010318477B
:1001E000D46D0500F46D05000A444FF0000C10F8C2
:1001F000013B13F0070408BF10F8014B1D1108BFA5
:1002000010F8015B641E05D010F8016B641E01F844
:10021000016BF9D113F0080F1EBF10F8014BAD1C94
:100220000C1B09D16D1E58BF01F801CBFAD505E0B2
:1002300014F8016B01F8016B6D1EF9D59142D6D30C
:10024000704700000023002400250026103A28BF34
:1002500078C1FBD8520728BF30C148BF0B60704738
:10026000642900F0DD80782900F01681732900F000
:100270005684002070471FB522F0C5FF1FBD10B582
:1002800010BD00F0ADFC1146FFF7F5FF22F048F974
:1002900000F0CBFC03B4FFF7F2FF03BC21F0CBFF6F
:1002A00011488047DFF84400016841F470010160A3
:1002B000BFF34F8FDFF83800016821F04041016043
:1002C000BFF36F8F0B480047FEE7FEE7FEE7FEE750
:1002D000FEE7FEE7FEE7FEE7FEE7FEE70648074922
:1002E000074A084B704700008D15010888ED00E0B3
:1002F00034EF00E0AD010008D80F0120D81B012029
:10030000D8110120D811012072B6704762B670472B
:10031000EFF3108072B6704780F31088704730BFDB
:10032000704720BF7047B0FA80F0704790FAA0F095
:10033000B0FA80F0704790FAA0F070477047000064
:100340000FB4044910B503AA029800F0EDFB10BCED
:100350005DF814FB240000200FB41CB5074B06AA5F
:100360007B4469460090059800F0AFFB0020694689
:1003700000F0BEFB1CBC5DF814FB00008D07000004
:1003800070B5044685690068C10601D5302600E0D5
:100390002026C00707D070BDD4E901213046904720
:1003A000206A401C20626D1EF6D570BD70B50446F3
:1003B00085690078C00707D170BDD4E901212020EC
:1003C0009047206A401C20626D1EF6D570BD70B546
:1003D0000C460546012A05D02878800600D5EA6932
:1003E000002302E0012305E05B1C934202D2E05CA3
:1003F0000028F9D1A869E618C01AA861286A18442B
:1004000028622846FFF7BCFF04E0D5E9012114F873
:10041000010B9047B442F8D32846FFF7C7FF70BDE1
:100420002DE9F0410646002410687529314616A5CD
:1004300010D0AFF30080002802DA404213A507E095
:1004400031688A0701D512A502E0490704D511A534
:10045000012401E0AFF3008000210A2206F1240705
:1004600009E0B0FBF2FCB0FBF2F302FB1C00303001
:1004700078541846491C0028F3D123462A463046B2
:10048000BDE8F04100F0C3BA000000002D000000FC
:100490002B0000002000000070B504460D462146E8
:1004A0001068AFF300802188090502D50F4A7A440D
:1004B00002E00E4A7A440E32002104F1240305E0E2
:1004C00000F00F060009965D5E54491C0028F7D124
:1004D00020780023000704D5702D02D009B1022333
:1004E00011322046BDE8704000F091BA97690500CE
:1004F0002DE9F05F894604464FF0000ADFF824B189
:10050000FB44C0F820A02046E168884700287DD041
:10051000252806D0D4E901219047206A401C20629A
:10052000F1E700255F462046E16888472028064617
:1005300007DB312E05D2B81910F8200C08B105439D
:10054000F1E7A80701D525F00405C4F81CA0002791
:10055000C4F818A02A2E09D0304621F065FE38B321
:1005600004EB8708303EC8F8186019E059F8041BFE
:10057000204604EB87029161E1688847012F064617
:1005800018D1E069002820DA25F020051DE0D8F810
:10059000180000EB800006EB40003038C8F8180067
:1005A0002046E1688847064621F03EFE0028EED14D
:1005B000012F0AD02E2E08D12046E16888477F1CE3
:1005C0000646022F45F02005C4DBA069002803DAA7
:1005D000404245F00105A061E80701D025F0100573
:1005E000A6B1A6F14100192802D8203645F40065CD
:1005F0004A463146204625604D46FFF731FE60B140
:10060000012807D0ED1D25F0070000E007E000F10C
:10061000080978E705F1040975E730467AE7206AAA
:10062000BDE8F09F6D69050040EA010310B59B0726
:100630000FD1042A0DD310C808C9121F9C42F8D04C
:1006400020BA19BA884201D9012010BD4FF0FF30FD
:1006500010BD1AB1D30703D0521C07E0002010BD13
:1006600010F8013B11F8014B1B1B07D110F8013B9F
:1006700011F8014B1B1B01D1921EF1D1184610BD80
:1006800040EA0103024630B59B0710D14FF0013418
:1006900000E008C208C91D1B9D4315EAC41FF8D01D
:1006A00013F0FF0102F8011B0DD01B0AF8E711F847
:1006B000013B002B02F8013B05D011F8013B002B58
:1006C00002F8013BF3D130BD10B5431C02E010F835
:1006D000011B71B18107FAD14FF0013202C88C1AA7
:1006E0008C4314EAC211F9D0C01A0A0603D0C01E06
:1006F00010BDC01A10BD0A0401D0801E10BD090231
:10070000FCD0401E10BD032A40F2308010F0030CD4
:1007100000F0158011F8013BBCF1020F624498BF54
:1007200011F801CB00F8013B38BF11F8013BA2F1F1
:10073000040298BF00F801CB38BF00F8013B11F06C
:10074000030300F06780083AC0F0088051F8043BCA
:10075000083A51F804CBA0E80810F5E7121D5CBF79
:1007600051F8043B40F8043BAFF30080D20724BFAC
:1007700011F8013B11F801CB48BF11F8012B24BF40
:1007800000F8013B00F801CB48BF00F8012B70478F
:10079000431A28BF9A427FF6B6AF032A1044114489
:1007A00040F2268010F0030F1EBF11F8013D521ECB
:1007B00000F8013D10F0030F7FF4F6AF11F00303D2
:1007C00000F0D781083AC0F00B8051F8043D083A98
:1007D00051F804CD40F8043D40F804CDFFF7F3BFD5
:1007E000121D5CBF51F8043D40F8043DAFF300809A
:1007F000D20724BF11F8013D11F801CD48BF11F80F
:10080000012C24BF00F8013D00F801CD48BF00F8DD
:10081000012C704710B5203AC0F00B80B1E8185099
:10082000203AA0E81850B1E81850A0E81850BFF4DA
:10083000F5AF5FEA027C24BFB1E81850A0E8185079
:1008400044BF18C918C0BDE810405FEA827C24BFCD
:1008500051F8043B40F8043B08BF7047D20728BF5B
:1008600031F8023B48BF11F8012B28BF20F8023BAA
:1008700048BF00F8012B704702F0FF0343EA032250
:1008800042EA024200F002B84FF000020429C0F030
:10089000128010F0030C00F01B80CCF1040CBCF1B2
:1008A000020F18BF00F8012BA8BF20F8022BA1EB04
:1008B0000C0100F00DB85FEAC17C24BF00F8012BE9
:1008C00000F8012B48BF00F8012B70474FF00002E1
:1008D00000B5134694469646203922BFA0E80C5036
:1008E000A0E80C50B1F12001BFF4F7AF090728BF11
:1008F000A0E80C5048BF0CC05DF804EB890028BF8D
:1009000040F8042B08BF704748BF20F8022B11F0B5
:10091000804F18BF00F8012B704710B5044610F047
:10092000030F08BF11F0030F40F015804FF0013E98
:10093000121FC0F20E8051F8043BA3EB0E0C2CEA00
:10094000030C1CEACE1C08BF40F8043BF0D0A1F118
:10095000040102F10402521E08DB11F8013B002BD6
:1009600000F8013BF7D11146FFF78EFF204610BD7E
:100970004FF0013C50F8042B51F8043B9A4221D12E
:10098000A2EB0C03934313EACC1317D150F8042BBA
:1009900051F8043B9A4215D1A2EB0C03934313EA9E
:1009A000CC130BD150F8042B51F8043B9A4209D1D7
:1009B000A2EB0C03934313EACC13DBD04FF00000FF
:1009C000704700BFD01A01BAB1FA81F101F01801E5
:1009D00022FA01F0CB40C1F12001DBB2C0B2C01A53
:1009E0002CFA01F3D11A914311EAC311E6D17047F1
:1009F000704770477047704710B500F0E5F8006821
:100A000010BD10B5044600F0DFF8046010BD2DE9FC
:100A1000F0470D4699469246044600F124080168C5
:100A2000880604D5E06921F01001216000E0012072
:100A3000A84201DD471B00E00027A1697A1902EBFB
:100A40000900081AA0612078C00602D42046FFF7EA
:100A500097FC002608E0D4E901211AF80600904727
:100A6000206A401C761C20624E45F4DB2078C006CC
:100A70000AD52046FFF784FC06E0D4E901213020A6
:100A80009047206A401C2062381EA7F10107F4DC61
:100A900007E0D4E9012118F805009047206A401CBE
:100AA0002062281EA5F10105F3DC2046FFF77EFC3D
:100AB0002078000602D50220BDE8F0870120FBE780
:100AC00001694A1C02610878704700B58FB0CDE912
:100AD00001310021059105497944CDE90310114602
:100AE0006846FFF705FD0FB000BD0000E5FFFFFF02
:100AF0000A6802F8010B0A60704710B5436913B128
:100B0000AFF3008001E0FFF762FC012010BD127816
:100B100000F124010A7000224A700122EDE71168F9
:100B20004FF0FF32E9E70000074B70B50D467B44FC
:100B3000FFF7CBFF0446284600F04AF810B14FF00B
:100B4000FF3070BD204670BD9B180200431A28BFBD
:100B50009A427FF65FAE104410F0030F11441EBF9F
:100B600011F8013D521E00F8013D10F0030F7FF413
:100B7000F6AF103AC0F00A8010B531E91850103ABB
:100B800020E91850BFF4F9AFBDE81040530724BF67
:100B900031E9081020E9081044BF51F8043D40F83D
:100BA000043D12F0030F08BF7047D20728BF31F889
:100BB000023D48BF11F8012C28BF20F8023D48BF74
:100BC00000F8012C7047000000487047780F0120A2
:100BD000007B00F08000704700487047780F0120CC
:100BE0007546FFF7F9FFAE4605006946534620F00B
:100BF0000700854618B020B5FFF770FBBDE8204020
:100C00004FF000064FF000074FF000084FF0000BC8
:100C100021F00701AC46ACE8C009ACE8C009ACE87B
:100C2000C009ACE8C0098D46704710B50446AFF363
:100C300000802046BDE81040FFF72CBBEFF3098190
:100C400041B1F1EE101A40F8041D20ED200A3E4992
:100C50000A6810607047B0EC200A02C8E1EE101A72
:100C60003A490A681060704772B64EF62250CEF2CA
:100C7000000040F2FF01C0F2000101704FF00000DF
:100C800080F309880DF06AFC40F28810C2F200007F
:100C9000016881F3088840F21210C2F2000040F2AD
:100CA0001311C2F200010A78027040F28015C2F2FC
:100CB000000540F28411C2F200010A682A6010683F
:100CC00080F30988EFF3148040F0020080F3148869
:100CD000BFF36F8FBDE8F00F0FBCBDE8005006BC3E
:100CE00062B608471A484FF08051016070471848B3
:100CF0004FF080510160704772B6EFF3098020E930
:100D0000F00F40F28015C2F200052E683060744684
:100D10000DF024FC40F21210C2F2000040F2131158
:100D2000C2F200010A78027040F28411C2F200019E
:100D30000A682A6044F0F40E1068B0E8F00F80F3FF
:100D4000098862B6704700008001002084010020FD
:100D500004ED00E009F0A4B82DE9F0410D4601468C
:100D6000002004464E1908E00702301B401E80B2E6
:100D700000F007F8641C3844E4B2AC42F4D3BDE898
:100D8000F08110B5044609F033F9200AA02101EBE7
:100D90004000C0B209F0FCF809F06CF9E0B209F0CB
:100DA000F7F809F067F909F023F9A12009F0F0F844
:100DB00009F060F9002009F0B7F8044609F038F9A5
:100DC000204610BD2DE9F04116460D460746002489
:100DD00009E0E00025FA00F0C1B2381980B200F055
:100DE00006F8641CE4B2B442F3D3BDE8F08170B5F8
:100DF0000D46044609F0FCF8200AA02101EB400052
:100E0000C0B209F0C5F809F035F9E0B209F0C0F850
:100E100009F030F9284609F0BBF809F02BF909F080
:100E200007F9BDE870400A2021F07EBA002800DCF6
:100E30004042704738B5456804460146284613F0DD
:100E40009BFE00282BD02068304A11280DD006DCEC
:100E50000B2825D00E2833D00F2852D112E0282895
:100E600049D0B0F5107F4CD108E09268002A16D026
:100E70002146284601B0BDE83040104721462846AB
:100E80005268F7E7284602F049FF0090406E046878
:100E9000684602F0ADFF002C01D02846A04738BDBF
:100EA000284602F03BFF0090683002F08DFE00986B
:100EB00003216C3002F096FE684602F099FF20E0B4
:100EC000E168486809680D2902D0202913D105E09E
:100ED000002810DD28461DF0CDF806E0002804DDCE
:100EE0002846BDE838401DF0C5B82846BDE8384062
:100EF00002211DF0D5B8E06818B90021284600F09D
:100F0000C9F92046BDE8384014F0F0B800030020CD
:100F10002DE9FF410AAF97E87000002703958DE89F
:100F2000D00000F003F804B0BDE8F081F0B585B062
:100F30000DF1280C9CE8F0004FF0000C8DE8F0104B
:100F400000F024F805B0F0BDF0B5044685B0806926
:100F5000B4F90850668A0027CDE90265CDE900178B
:100F60000490B4F90C00B4F91060C118B4F90A0087
:100F7000B4F90E50104433462A4600F007F80546EF
:100F8000616800F0A6F905B02846F0BD2DE9F04FE4
:100F900085B01F46DDE911B4DDE90E56904689465D
:100FA000824604F093F816484C34CDE90204CDE9AA
:100FB00000563B4642464946504613F0DFFF0400C8
:100FC00018D002F0ABFE10225946049013F000FF37
:100FD000049830220B493430FFF71CFC094D04996A
:100FE0000C3D2868486604A802F002FF28684168A2
:100FF0002046884705F032FC05B02046BDE8F08F5A
:10100000350E00080C030020F0B5044680688B49BB
:1010100089B051F82050606800287DD0052804D0A0
:1010200006287AD0122879D1AEE0E86900284FD09E
:1010300095E80E008DE80F0004F110010FC906F0CD
:1010400077F8002655F8260004F06BFFA169E869DF
:101050000A1A216901446069304403F053FDA16913
:10106000E8690A1A21690144E069801B03F04AFD1E
:10107000E169E8690A1A616901442069304403F0B2
:1010800017FEE169E8690A1A61690144A069801BD9
:1010900003F00EFE761C022ED4DBA86804F041FF9C
:1010A000E069E9696669431A206942183144801C85
:1010B000521E03F059FEE169E869A2690B1A6169E1
:1010C0000144101A401C921E03F04EFEEE6913E01C
:1010D0005FF0000655F8260004F023FFE069831B4B
:1010E000A069821B606981192069304403F080FD8A
:1010F000761C022EEEDB0226D5E90301CDE90001C4
:101100006169E06908444310A069891C821B206959
:10111000304403F0BBFC02E089E012E08AE0D5E94C
:101120000501CDE90001E36960690121184401EB83
:101130006001A0699B1E821B2069304403F0A6FC5D
:1011400078E0206802F0EAFD0490206815F0F0FBDA
:1011500040B1A06808B1002008E00498006F28B1F1
:10116000012003E00498406F00B10220049901EBD4
:101170008000C56E04A802F03BFE00231A462846F4
:10118000216803F0C3F955E0206802F0C7FD049020
:10119000866EEEB3B0F95C70A168D1B3032942D07A
:1011A0005FF0000100EB8101406D0C6C04F0E8FE83
:1011B000204604F0B6FE05A803F098FEBDF8141012
:1011C000A88B0144ADF81410BDF81810081AADF83A
:1011D0001800BDF81600801CADF81600BDF81A0006
:1011E000801EADF81A000498B0F96020B0F95E10C6
:1011F00005A804F0A9FC04A802F0FAFD022004F0FE
:1012000049FF304602F08AFD3A4605A9079001E001
:101210000BE006E003F07EFA0DF11C0002F0E8FDA1
:1012200008E00121BEE70221BCE704A8F6E7206838
:1012300014F0FEFF09B00020F0BD00004C56050878
:10124000044A0349116004494A6A486210467047DB
:101250003C030020000300200C03002000294FF075
:10126000100101D013F01CBD13F067BC38B50D465A
:1012700004000ED003F02AFF204602F04FFD00903C
:101280004565684602F0B4FD204614F0ADFC05F05B
:10129000E5FA38BD4FF480720029114601D013F0F1
:1012A000FFBC13F04ABC08B50023009300F001F81E
:1012B00008BD70B516460C46054619463046049AD8
:1012C00003F006F9024621462846BDE8704000F0CA
:1012D0002DB82DE9FF410E4605004FF0010421D045
:1012E00003F0F4FE284602F019FD0190876E01A874
:1012F000009702F07DFD3146684606F0B5FA78B1F8
:1013000000980024B84208D0284602F007FD01905A
:101310000099816601A802F06BFD284614F064FC78
:1013200005F09CFA04B02046BDE8F081F8B51546FA
:101330000C46060018D003F0C9FE304602F0EEFC61
:101340000090032C0BD200EB84006C3002F03CFCCC
:10135000009800EB8400C566304614F045FC6846F2
:1013600002F046FD05F07AFAF8BDFEE72DE9FF47E9
:101370000446006810B115F0DBFA68B1002231486C
:1013800050F8221060680A2841D007DCF0B3062824
:101390000DD0072854D106E00122F0E712280AD028
:1013A00019284DD137E0204616F0ECFD48E02046E4
:1013B00018F076FD44E0206802F0B0FC0290B0F92D
:1013C000548090F85650476C466B02A802F010FD0E
:1013D000206800F039F88146684613F0A7FFBDF891
:1013E000001009EB05000844ADF80000246A3046FF
:1013F00004F0C6FD022004F04DFE384604F091FDD5
:1014000042466946204603F085F919E007E0204688
:1014100019F0DFFB14E0886904B0BDE8F0872068AC
:1014200014F006FF206802F079FC0390B0F9061072
:10143000B0F90220891A491CC16703A802F0D8FC40
:101440000020E9E75C56050838B5044603F03EFE87
:10145000204602F063FC0090C46F684602F0C8FCAE
:1014600005F0FCF9204638BD044A034911600449DF
:10147000CA69C86110467047C803002000090020EF
:101480000409002000B589B024216846FFF71EFA40
:1014900019200190034800688068416868468847C1
:1014A00009B000BD00090020054910B500204860C2
:1014B00000F0A6F800F006F8BDE8104000F086B88D
:1014C000980000202DE9F041104F002635463E805F
:1014D0007E80BE60FE607E61BE613E61FEF718FFE9
:1014E000804600247E6100F049F800F057F87869E2
:1014F000641C24040544240CF4D0C7E90456404677
:10150000BE61BDE8F041FEF707BF00009800002073
:1015100003490969884201D9401A70470020704781
:101520009800002010B5FEF7F3FE04494C69FEF761
:10153000F3FE2046BDE81040FFF7EABF9800002008
:1015400010B5FFF7EFFF0446FEF7E2FE034A002165
:101550005161FEF7E1FE204610BD0000980000201A
:1015600010B5FEF7D5FE04498C69FEF7D5FE20467E
:10157000BDE81040FFF7CCBF9800002010B5064C26
:101580002088401C2080608810B900F051F8A060CD
:101590006088401C608010BD9800002010B50A4C87
:1015A0006088401E0004000C60800CD100F040F800
:1015B000E060A168401A6169814200D26061A1695E
:1015C000814200D2A06110BD9800002010B5FEF746
:1015D0009FFE0446FFF7D2FF102105480BF03DFEA9
:1015E000FFF7DCFF2046BDE81040FEF795BE000087
:1015F00040F3002001494860704700009800002037
:1016000010B506F0E1FF08490A6842F080720A60EE
:10161000064900224A600A6842F001020A60BDE8F9
:101620001040FFF7E7BF0000FCED00E0001000E015
:101630000148406870470000001000E070B50E4C93
:101640000025C4F898520D48016821F0C0010160DE
:10165000016841F0400101600948C0F88C52022045
:1016600004F5267420F088FE01202060022020F07E
:1016700083FE256070BD00000080434200200240D0
:1016800000004442154810B5016886B041F0800161
:101690000160016801F080010591016841F48071E9
:1016A00001600068012400F4807005904020CDE9BD
:1016B00000040320CDE902406946094806F0F4F928
:1016C000082000906946074806F0EEF90648C0F881
:1016D0008C420648C0F8984206B010BD303802402F
:1016E000001C0240002002400000444200804342AF
:1016F00070B50E4C0026C4F898620D48016821F0C0
:10170000C0010160016841F0400101600948012504
:10171000C0F88C52022004F5267420F02DFE2560BE
:10172000022020F029FE266070BD000000804342A8
:1017300000200240000044422DE9F047824619484B
:101740000024016821F0C0010160016801601E20D1
:1017500020F012FE0025144EDFF850902F464FF077
:101760000108C6F89872022020F006FEC6F898829A
:101770006006040ED9F80C0208B1641CE4B2022021
:1017800020F0FAFD6D1CEDB2082DEAD3BAF1000F7E
:1017900004D0FFF753FF2046BDE8F087FFF7A8FF0E
:1017A000F9E700000020024000804342000044426C
:1017B0002DE9F04705461648016821F0C001016097
:1017C000016841F040010160124E0027C6F898728E
:1017D000022020F0D1FDDFF8408000244FF0010905
:1017E000E909C8F88C126806050E022020F0C4FD35
:1017F000C6F89892022020F0BFFDC6F89872022029
:1018000020F0BAFD641CE4B2082CE9D3BDE8F087EF
:1018100000200240008043420000444270B50F485F
:10182000016821F0C0010160016841F040010160E0
:101830000B4E0120C6F88C020A4DC5F898021E20F6
:1018400005F5267506F5237620F096FD0024346014
:10185000022020F091FD2C6070BD000000200240AD
:10186000000044420080434270B50F48016821F0F7
:10187000C0010160016841F0400101600B4E002091
:10188000C6F898020A4DC5F88C021E2005F523758E
:1018900006F5267620F070FD01243460022020F049
:1018A0006BFD2C6070BD00000020024000804342B0
:1018B0000000444270B511480024016821F0C001C5
:1018C0000160016801600E4D0120C5F88C020D4ECB
:1018D000C6F8980207E0641CE4B2FA2C03D9FFF7BB
:1018E000C3FF012070BD022020F046FDD5F80C0298
:1018F0000028F0D1C6F8980270BD00000020024018
:1019000000004442008043421CB513F03DFD0346F5
:1019100078216420CDE90001034A0321034802F045
:10192000ADFC034908601CBDE11D020834D0040869
:10193000A80100201CB513F027FD034678210020E4
:10194000CDE90001034A0221034802F097FC034954
:1019500048601CBD951F020888D00408A80100201B
:101960001CB513F011FD034600214FF44D70CDE975
:101970000001074A0321074802F080FC064CA060E2
:10198000642002F0FBFDA06814F02EF9F8E70000D7
:101990004D200208C0D00408A8010020F8B5054673
:1019A000006802F0BBF90090448ED0F88860684669
:1019B00002F01EFA06B1012604F00104286814F0B2
:1019C000B7FF0EB1002006E00CB1012003E008B122
:1019D000022000E003201B4951F82010686858B32A
:1019E00002280CD0052802D0122828D103E028466E
:1019F00016F0F4FA23E0284619F087FD1FE06A6923
:101A0000E8694FF0FF33801AA0F1080203EB62048B
:101A1000421CAB69001B4510A3EB6206C86904F0C9
:101A200080FA06E03219311B284603F06BF8641E79
:101A30006D1C002CF6DA02E0286814F0F9FB002097
:101A4000F8BD000064560508044A034911600449C2
:101A50000A6B0863104670471404002040090020F8
:101A60004409002038B50D46002402F057F90090D3
:101A7000C06B294602F081FA0546684602F0B8F9C3
:101A80001DB1284602F04AF90446204638BD704789
:101A900070B5B3F5804F05D06FF0704140F822105B
:101AA000002070BD50F82230084C2340D1E9004599
:101AB00044EA05148D688E892D0245EA0645896938
:101AC0002C430C431C4340F82240E9E70000F0CFD0
:101AD000F0B50C6850F82450194A1540D1E901239B
:101AE000D1E903671A433E4332434E6932438E695C
:101AF0003243CE6932430E6A32434E6A32438E6AB3
:101B00003243CE6A3243CE6B32430E6B32434E6B5E
:101B100032432A43082B01D142F0400240F82420EE
:101B20004A6BB2F5801F08D10A6832B14FF4807257
:101B30000A6104490268114301600020F0BD000001
:101B40008000E0FF00011000F0B500EB8202536856
:101B50008E8903F04044D1E9003543EA05138D68CE
:101B60002D0245EA06452B430E8A0D4D05EB065620
:101B700033430E7D6F0107EB066633438E693343B3
:101B8000234353600268D20207D54268098A22F4CF
:101B9000700205EB0151114341600020F0BD0000CF
:101BA0000000F0FF30B5D1E901231A43D1E9033435
:101BB00023431A434B690D681A438B691A43D1E9D1
:101BC0000734012D496A05686FF30E0505D01A43E5
:101BD00022430A432A43026008E0234329430B437C
:101BE000416803606FF30E010A434260002030BD7C
:101BF000426942EA4101416100207047F8B514464C
:101C00000546D1E9000210438A686FF01F03C968D6
:101C100003EB421242EA412108430090286106F09A
:101C20003BF8064609E0601C07D024B106F034F802
:101C3000801BA04201D90320F8BDA8698006F2D418
:101C40000020F8BDF0B56FF00F05D1E9003405EBC9
:101C500004145B1E2E0123438C682F0306EB04241F
:101C60004FEA054C23430D8A8E8ACC68097E4FF0DB
:101C70007F4E07EB05450CEB06560EEB0161012A82
:101C80000CD082683F1107EB043423432B433343CA
:101C900002F070420B43134383600FE0C2682B4392
:101CA0000B4302F070428168134301F0704221033C
:101CB000A1F5805131431143C36081600020F0BD24
:101CC0002DE9F04389B0984615460F4606004FF0BF
:101CD00000042CD000F0BCFB0446304600F09FFB13
:101CE000814603F0F3F903A9304600F09CFCF807A5
:101CF00006D0BDF91C008221001B401B401C08E0DF
:101D0000B807BDF91800284402D540F2022100E0CE
:101D100002210096CDE9018123461A464946FFF784
:101D2000F7F804460021FFF799FA04F097FD09B08F
:101D30002046BDE8F083000010B50523FFF7C0FF83
:101D40000446054A0021FFF7AEFA0449204614F084
:101D50004CF9204610BD0000957D01086D21020858
:101D600010B50823FFF7ACFF0446054A0021FFF732
:101D70009AFA0449204614F038F9204610BD0000B4
:101D8000E17E0108832102082DE9F04704464068FE
:101D90008EB00027804601F0C1FF0090B0F87CA013
:101DA000D0F86890D0F88060D0F88850C06D00B14D
:101DB0000768684602F01CF805E069682046884715
:101DC000002843D12D68002DF7D12068172853D063
:101DD0000CDC0F283DD004DC0B2877D00D2825D152
:101DE0008BE0112810D0142820D13BE0262846D0C3
:101DF00004DC1E2851D0202818D18AE02A2816D0C9
:101E0000B0F5107F12D128E04046E56801F086FF6A
:101E10000290697A39B9297A012904D130F87C1FF6
:101E200041F48071018002A801F0E2FF75E04046B4
:101E300001F074FF0090E16811B1C0F8841002E075
:101E4000D0F88400E060684601F0D2FF0EB0BDE833
:101E5000F087D7B34046B8475FE0214640461CF0C4
:101E600005FEF3E705A9404600F0DDFBE0680699B2
:101E7000016007994160E9E7C4F80C90E6E7E06883
:101E80000228E3D1CDF83080E0680D9027200A9039
:101E90000AA9A06814F05CFFD8E7E068012804D024
:101EA0000021404600F00EFBD0E7304613F005FF5E
:101EB00068B1304614F036F9304613F0C1FD98B1E0
:101EC0000121304612F0ECFE0EE026E02FE04846FD
:101ED00014F07CF90646404601F020FF0090C0F85F
:101EE0008060684601F084FF0121404600F0EAFA74
:101EF000002EABD10020E060A8E75FEA0A700CD4A6
:101F0000E068C06848B1007A38B1404614F00AF978
:101F100003E0214640461CF0E0F82146404612F01E
:101F20002BFE002892D0204613F0E0F88EE74046C2
:101F300001F0F4FE0090703001F046FE684673E751
:101F4000F0B587B0B0F908400DF10C0C0C9E876914
:101F500045688CE8F000448A0025CDE9001502941C
:101F6000B0F90C10B0F91050B0F90E40B0F90A00F9
:101F7000194410442B46224600F002F807B0F0BD89
:101F80002DE9F04F8BB09846DDE9155691468A460B
:101F90008346149F1A9C03F099F83348603445F443
:101FA0008055CDE90204CDE9007543464A465146C5
:101FB000584612F0E3FF04004FD001F0AFFE30228C
:101FC0000490179912F004FF04982822274934300E
:101FD000FEF720FC04981999244F4166A0F87C6014
:101FE0000026C0F88060C666083FC0F8886079683F
:101FF000C16504A801F0FCFE05A9204600F013FB12
:102000001B4841F2827103960094CDE90110BDF99D
:102010001E00BDF91A10BDF91C20431ABDF91800A5
:102020005B1C121A521C12F0A9FF06467868416820
:1020300020468847204601F071FE0490866604A879
:1020400001F0D6FE42F20400054202D1204613F010
:10205000FDF82046189900F08FFA04F0FFFB0BB052
:102060002046BDE8F08F0000891D0008D80400203C
:102070002D2900082DE9F041044694B0006800F0D5
:10208000B7F908B1D94D01E0D84D2C356068152855
:102090001ED00CDC0B281FD004DC00287ED00528C5
:1020A0007DD12FE10E287BD01228F9D141E11628ED
:1020B00006D0172808D0182808D01C28F0D109E02D
:1020C000E86914B0BDE8F081286AFAE7686AF8E7C1
:1020D000A86AF6E76869F4E720680B901C200C906A
:1020E000206801F01BFE0390016D0BA8884706468F
:1020F00003A801F07DFE022E0FDB95E807008DE8B6
:102100000700D4E904023346A16904F0D7FF20692F
:102110008719A069A0EB06082CE0286803F001FFEE
:102120002169E8690A18521E606902F0EBFCA26995
:10213000E869111A491C606902F0E4FCD4E904075B
:102140007F1C394602F02EFD3946A06902F02AFDB7
:10215000686803F0E6FE20693946401C02F022FD63
:10216000A0693946401E02F01DFDA0692769A0F153
:102170000208BF1C286803F0D4FE42463946606955
:1021800002F0C0FC686803F0CCFE60694246394644
:10219000401C02F0B7FC686A022802E015E1B0E0DA
:1021A00000E10BDDA86803F0BCFE61696A6A881C67
:1021B0008B180146424638465B1E27E0296AB14229
:1021C00026DD6069022E074600F1020801DB374474
:1021D00001E007F10207206901DB304401E000F172
:1021E000020022693B460A444146A2F1010202F084
:1021F000BBFD022E02DBA069821B01E0A269921ED8
:10220000A069E9693B46401A4146401C02F0ACFD1A
:10221000022E02DB6069064401E06669B61CE769CC
:1022200028687F1E03F07DFE3A463146206902F0A1
:102230003FFD3A463146A06902F03AFDE769686819
:10224000BF1E03F06EFE20693A463146401C02F084
:102250002FFDA0693A463146401E02F029FDE8698B
:10226000022802DC286A022823DDA86A022802DD8F
:10227000E1690F1A01E0E769BF1EA86803F051FE8B
:10228000E969022909DD20693B46421800F1020C88
:1022900031466046521E02F067FD286A022808DDBA
:1022A000A269E8693B46101A3146401C921E02F0B2
:1022B0005BFD286803F035FED4E90620216902F0B1
:1022C00021FC686803F02DFED4E906202169401E38
:1022D000491C521E02F016FCA86A022811DDA169F1
:1022E0002669E469A1F10208271AA41EB61C7F1C06
:1022F000A86803F016FE234642463946304602F0EF
:1023000033FD71E0208A00B2ADF81400A18A09B251
:10231000ADF81610228B12B2ADF81820A38B1BB2A9
:10232000ADF81A302C69ED68CDE9005402F0AEFB2F
:102330005AE0208A298B0844ADF81400A08AADF831
:102340001600208B298B401AADF81800A08BADF831
:102350001A00206801F0E2FC0390006FF0B1022047
:1023600003F098FE039890F87C10C1F3C00100EBD5
:102370008100006C03F0D5FD0398406B03F000FE74
:102380000398006F01F0CAFC03990990B1F95A2033
:1023900005A902F0BFF909A801F02AFD03A801F080
:1023A00027FD21E0208AADF81400A08AADF81600C0
:1023B000208BADF81800A08BADF81A00A86803F0C8
:1023C000B0FD05A802F0FCFC0EE0206801F0A6FCC0
:1023D000039030F85A1F41F00C01018003A801F06E
:1023E00007FD206813F024FF00206AE61405002092
:1023F00038B505004FF000040FD002F067FE284604
:1024000001F08CFC009090F87C00000700D50124BE
:10241000684601F0EDFC04F021FA204638BD38B5DD
:1024200005004FF0000411D002F050FE284601F0E4
:1024300075FC0090C06D00218068026828469047B6
:102440000446684601F0D4FC04F008FA204638BD82
:1024500030B587B005004FF0000413D002F036FE0F
:1024600001A9284600F0DFF8284601F057FC00904B
:10247000B0F95440684601F0BBFC0CB9BDF904400A
:1024800004F0ECF907B0204630BD10B5040008D0C8
:1024900002F01CFE20461BF0F2FCBDE8104004F0E8
:1024A000DDB910BD10B504000BD002F00FFE2046C0
:1024B0001DF0A4FD20461DF075FDBDE8104004F0A0
:1024C000CDB910BD70B50D46040009D002F0FEFD77
:1024D000294620461DF022FEBDE8704004F0BEB93A
:1024E00070BD0000074A0649054B1160064A083BCB
:1024F000D16958601B68C2E9063008467047000081
:1025000008050020D4040020D80400202DE9FC4157
:102510000D46804602F0DAFD5FEA080028D001F09F
:10252000FDFB0190C16D8C6800F0E4F8074601984E
:10253000456301A801F05CFC2268012140469047F8
:10254000064622680321404690470546226800213E
:10255000404690470446404600F0B1F92B463246CB
:1025600039464046009400F03AF9404613F03CFBEF
:1025700004F074F9BDE8FC817CB50D4604001DD063
:1025800002F0A4FD204601F0C9FB0090006F01900D
:10259000684601F02DFC294601A805F065F958B1FF
:1025A000204601F0BBFB009001990167684601F0ED
:1025B0001FFC204613F018FB04F050F97CBD38B521
:1025C0000C46050013D002F081FD284601F0A6FB61
:1025D0000090B0F95A10A14204D0A0F85A40284601
:1025E00013F002FB684601F003FC04F037F938BD34
:1025F00038B50C46050015D002F068FD284601F0FC
:102600008DFB0022CDF8000000EB8201521C0C640F
:10261000022AF9D3684601F0EBFB284613F0E4FAEE
:1026200004F01CF938BD2DE9F34F85B000270C46A6
:10263000B846059801F072FB0090C06D01218568D5
:1026400005982A68904782462A6803210598904792
:1026500004902A6802210598904703902A68002177
:10266000059890470646009813F0E0FF83460098CF
:1026700013F0E3FF8146009890F83210890601D5E7
:10268000B0F9588000F036F805460098C06E10B1D9
:1026900012F0F3FF074625806780A4F804A0049A8F
:1026A000ABEB020006EB0802401E2A4420813A44AC
:1026B000E280039BA9EB0302521E6281A4F80CA0E6
:1026C00020827019E681401E6082684601F090FB0E
:1026D000B4F90C000190B4F91000029002AA01A90B
:1026E000059800F039F80198A0810298208207B07F
:1026F000BDE8F08F10B50146002091F83220920617
:1027000007D5B1F95400002803D1486B02F09BFCB7
:10271000801C10BD70B58AB00C46054601F0FEFA6B
:102720000990C06D866809A801F062FB009534B17C
:10273000012C06D0022C0BD0032C04D10AE0182067
:1027400000E0162001907168684688470AB070BDA5
:102750001520F7E71720F5E72DE9FC4117468846D5
:10276000044601F0DBFA0090C16D056868468E688A
:1027700001F03EFB32680021204690470646204685
:1027800012F029FE27E000BF01F0C8FA0190B0F96D
:1027900000102AB2B0F90430891A9A1AB0F902303E
:1027A000A3EB2543B34210D190F82800000605D5CD
:1027B0003868884209DB491E396006E0D8F8000015
:1027C000904202DC521CC8F8002001A801F010FB66
:1027D000204612F0A5FE0400D6D1BDE8FC812DE90B
:1027E000FF4F83B00E460746DDF8409001F096FAA1
:1027F0000190C16D8D68FFF77DFF044601A801F0CF
:10280000F7FA2A6801213846904783462A6803214F
:102810003846904782462A68002138469047054648
:10282000B44207D105998B4504D106998A4501D157
:102830004D4541D0A41B0026B046384612F0CBFDD2
:1028400038E001F06BFA0090806A010601D580053E
:1028500002E0810528D50006002825DB24B12246A8
:102860001146384613F0CDFA009890F8280000067B
:102870000AD50698A5EB0902A0EB0A0004FB160195
:102880003846761C13F070FA0098008D80050BD541
:102890000599A5EB0902ABEB010004FB080108F167
:1028A0000108384613F060FA684601F0A1FA38468C
:1028B00012F036FE0700C4D107B0BDE8F08F70B546
:1028C00086B0064601F02AFA0590D0E91A4505A817
:1028D00001F08EFA54EA050026D069463046FFF72B
:1028E000A2FEACB1BDF90620BDF90410204613F0DC
:1028F000FFF9BDF90A00BDF90610421ABDF908003A
:10290000BDF90410521C411A2046491C13F0E5FC85
:10291000002D09D0BDF90600BDF90210421ABDF91B
:102920000410284613F0E4F906B070BD2DE9F04319
:102930000446406889B0054612F0FFFD814601F06B
:10294000EDF90290D0F84880D0F88070466E02A869
:1029500001F04EFA2068172853D008DC0E283AD030
:102960000F2811D014284CD015283DD149E01E283D
:102970001ED01F282AD0222840D0312834D1002050
:10298000E06009B0BDE8F0836FF0704140468845D3
:1029900003D008F0D9FB01F025FC002EF1D0D4E9DA
:1029A00002122068CDE90405CDE9061204A81FE053
:1029B000E0680028E5D02FB1AF4203D0384613F0CD
:1029C000B1FBDEE7284613F001FCDAE72146484672
:1029D00012F0D2F8D5E7E0684168002904DD00680C
:1029E0000928EFD00A2805D05EB12046C4F804902B
:1029F000B047C6E7284613F0F8FBC2E7C4F80C80DE
:102A0000BFE7204612F072FBBBE7000070B5364806
:102A100088B00024016841F080010160016801F084
:102A200080010691016841F480710160006801A98C
:102A300000F4807006908020012581E83100032099
:102A400004902A4805F030F82802CDE9010501A9D3
:102A5000274805F029F8FEF715FE264EC6F8A042D5
:102A6000142006F528761FF05FFC356032201FF039
:102A70005BFC8DF8004001226946002000F00AF955
:102A800001226946A42000F005F916208DF8000007
:102A900001226946802000F0FDF80C208DF800002E
:102AA00001226946882000F0F5F802226946A1203B
:102AB00000F028F89DF80000302803D19DF801109F
:102AC000032908D09DF80110012904D0022902D061
:102AD000012008B070BDC9B201EB002106A0FDF7CE
:102AE0002FFC0020F5E7000030380240001C0240B7
:102AF00000200240000044424354502049443A25FB
:102B0000780D0A002DE9F04115460F460446FEF700
:102B100085FE7020FEF74CFEFEF7CCFEE0B2FEF71D
:102B200047FEFEF7C7FEFEF779FE7120FEF740FE76
:102B3000FEF7C0FE00246E1E09E0B44201D0012061
:102B400000E00020FEF7F8FD3855641CE4B2AC420A
:102B5000F3D3BDE8F041FEF787BE00002DE9F14355
:102B6000484F00244FF00A09387882B0401CC0B2A8
:102B7000B0FBF9F209FB1201434DA046387009B1D0
:102B80000A2864D2012202A90220FFF7BBFF9DF8A8
:102B9000080001075BD000F00F00062857D2FF2184
:102BA0008140C84340F0C00085F820004FF0010884
:102BB000002695F8201008FA04F001423AD0334874
:102BC0000422694630F81400FFF79CFF95F83000A6
:102BD0009DF80010C0079DF8010001F00F010ED014
:102BE00000EB012105EB4400C1829DF802209DF815
:102BF000031002F00F0201EB0221818110E000EBD3
:102C0000012023490988091A05EB440081819DF8B8
:102C100002209DF8031002F00F0201EB0221C18295
:102C20009DF800000821B1EB101F03D005EB440014
:102C3000C6828681641CE4B2052CBAD3A9894FF000
:102C4000010819B9E88A08B98DF808603E709DF846
:102C50000800C0060ED195F82000010602D520F02C
:102C6000800005E04FF6FF71A981E98200F0E000E5
:102C700085F820003878F02801D987F80090404680
:102C8000BDE8FE8338000020400000206079020883
:102C90004C1D00202DE9F04115460E460446002744
:102CA000FEF7BCFD7020FEF783FDFEF703FEE0B2E9
:102CB000FEF77EFDFEF7FEFD002408E0305DFEF726
:102CC00077FDFEF7F7FD070003D1641CE4B2AC42C8
:102CD000F4D3FEF7C9FD3846BDE8F0812DE9F04395
:102CE0000446C56887B090468946002003F03CF949
:102CF000064625B1287910B146F0020001E026F021
:102D0000020003F031F92069012558B1D4E902121B
:102D10008DE826000395638822880468414648466A
:102D2000A0471EE0124F134B214638681B68427CB7
:102D3000E068984730B9E088012801D0002001E020
:102D40003868806BA288E388A1680095CDE90410FB
:102D5000CDE902320195638822884146484607F052
:102D6000E5FA07B03046BDE8F04303F0FDB80000D7
:102D700058020020500200201CB50024019401AC30
:102D8000009400F0E7F81CBD2DE9FF4F83B08146A9
:102D900006988A46A0EB0A08109E00200090A2EB3D
:102DA00009043568934654EA080018D02046FEF717
:102DB0003DF807464046FEF739F887420BDA2046D1
:102DC000444680464846D14682465846DDF818B00B
:102DD000069001200090002C07DD204606E007B099
:102DE0004846BDE8F04F00F03BB96042A0420AD02F
:102DF0004846D9466442C8F1000883464FF0FF3781
:102E0000DDF818A000E001275148B8F1000F11D0FB
:102E100004EBD4714FEA610B01DACBF1000B4C48A3
:102E20000068807E88B3002F02DA3068204430606A
:102E300000257BE000990029016821D0897E11B12D
:102E40000027804615E007B05A4649465046BDE87F
:102E5000F04F07F031BC28466D1C1DF06DFA38B9F3
:102E6000D8F8000009EB0701406E426850469047D1
:102E70007F1CA742EFDD6D1E356007B0BDE8F08F07
:102E80008A7E1AB10027804617E019E0486E5A463C
:102E90005146036807B04846BDE8F04F184728463A
:102EA0006D1C1DF049FA38B9D8F8001009EB07007D
:102EB000496E4A68514690477F1CA742EFDDDAE72A
:102EC00000250FE008FB05B090FBF4F101EB0A00D0
:102ED000009951B11E4A09EB05011268526E526801
:102EE00090476D1CA542EDDDC7E7194909EB0503C5
:102EF0000968496E4A6801461846F1E708FB05B0C3
:102F000090FBF4F101EB0A00019030683844306026
:102F10001DF012FA48B9009890B10D4809EB05016F
:102F20000068406E4268019890476D1CA542E5DD3F
:102F30003068002F01DA20443060C01B30609CE70D
:102F4000034909EB05000968496E4A680199EBE7F6
:102F5000580200202DE9FF470F464049164680469B
:102F600009680C981D460A7E012A1CD0A8EB0600B1
:102F7000791B50EA01031CD0A2F101091EF0C6FE24
:102F800000F58060824604F05EFD00FB09F45046C7
:102F900004F05EFD00FB09F1002C0CDAC4F50070B2
:102FA000801240420AE00090324639464046FFF720
:102FB000EBFEBDE8FF8704F50074A012002904DAD7
:102FC000C1F5007189124C4202E001F500718C12CA
:102FD000002804DD411C01EBD171491003E000EB36
:102FE000D0714910401E00EBD0704210002C04DD5F
:102FF000601C00EBD070401003E004EBD470401074
:10300000641E04EBD47308EB0104ADF800403C18D7
:10301000ADF80240A8EB02045B10B21AADF8044010
:10302000ADF808203144FC1AEA1AADF80C10284417
:10303000ADF80A20ADF80E000023ADF806401A46A0
:103040000421684600F07AF83946404618F0F0F856
:103050002946304618F0ECF8ABE700005802002093
:10306000064A13681A7E012A05D0521E02EBD2725C
:10307000521000F005B85A6E5268104758020020EE
:103080002DE9F05F0646884640F2C32002FB00F1BE
:103090004FF47A7091FBF0F702FB02F102EBD27071
:1030A00001EB600B1446B118234A301B7F1C1268D9
:1030B000526E13680A4641469847012538E000BF22
:1030C00005FB05F004FB040159451CDDBC4219DD7C
:1030D000194B06EB050AA6EB05091B68AAF10102CC
:1030E00008EB04015B6E09F101001B689847124B65
:1030F000AAF10102A8EB04011B6809F101005B6E53
:103100001B689847641E0C4B3219301B1B68924693
:1031100008EB05015B6E81461B689847064B5246DB
:10312000A8EB05011B6848465B6E1B6898476D1C41
:10313000BD42C5DDBDE8F09F580200202DE9FF4FDC
:1031400043F6FF740F46664283B09B4681460021DA
:103150000BE000BF09EB8100B0F90200A04200DAE9
:103160000446B04200DD0646491CB942F2DB67481E
:103170000068406900280DD0B0F906101A46A1EB8E
:103180000B01B14200DA0E46B0F90200801AA042EB
:1031900000DD0446B4E0DFF878A100200546CAF857
:1031A000000088E0781E854201DA6B1C00E00023F5
:1031B00009EB850C09EB8302BCF90200B2F902109D
:1031C000A04244D1A14215D139F92330059A39F9E9
:1031D000251003EB020C4D4A05981268084404EBD5
:1031E0000B01526E6045136801DA62462AE002461E
:1031F000604627E02846A4464FF000087A1E0BE000
:1032000008B1401E00E0781E09EB8003B3F90230DC
:10321000634504D108F101089045F1DB2346A34240
:1032200048D01A1B39F92500A1EB040C059B92EA42
:103230000C0F09D4354A184404EB0B011268526E86
:1032400013680246984735E013F078FE32E0A14259
:1032500030D001DBA04203DDA0422BDBA14229DC00
:10326000E04688420ADC0346A04223DC0846A1422D
:1032700020DBB8F900C0B2F9001008E00B46A1420B
:1032800018DCA04216DBB2F900C0B8F90010E21A4F
:10329000A1EB0C0151430029A0EB030202DD01EB7D
:1032A000620102E0A1EB6201491CC01A91FBF0F03F
:1032B0006044C9E76D1CBD42FFF674AF05980090ED
:1032C00004EB0B00019000208046054613E01149F5
:1032D000B8F1000F31F915A009D0009901EB0A02ED
:1032E00008440A490968496E0B680199984788F0B3
:1032F000010850466D1C064909688D42E7DB641CD5
:10330000B4427FF748AF07B0BDE8F08F5802002005
:10331000980A0020E80E012010B5002002F0F6FD0A
:103320006FF07F4002F0FDFD012002F095FE0020CD
:1033300002F0A0FE002002F0ADFE002002F014FE1C
:103340000448006802F01CFEBDE81040002002F0B6
:1033500055BE0000540200202DE9F0433F4889B0DB
:103360000024016841F080010160016801F08001E2
:103370000791016841F4807101600068802600F4C3
:103380008070079001AA012503270096DFF8D090EE
:1033900082E8B0006946484604F086FB2802CDE981
:1033A000000569462F4804F07FFBFEF76BF9DFF854
:1033B000B880C8F8A0420A201EF0B6FFC8F8A05294
:1033C0000A201EF0B1FFCDE90064CDE9024769464D
:1033D000484604F069FB64201EF0A6FF042205A9FC
:1033E00048F2401000F058F88DF8184005A91FA0C9
:1033F000FCF7A6FF20A105A8FDF7BAFA18B1012035
:1034000009B0BDE8F08302208DF8140048F24005B1
:10341000012205A9284600F083F9012205A9E81D2B
:1034200000F03AF89DF8141060290BD214A0FCF7B4
:1034300087FF18488088A0F5AA41103902D10120E1
:1034400000F048F90A201EF06FFF8DF814400122A9
:1034500005A9284600F064F90020D1E73038024081
:10346000001C02400020024000004442435450200F
:1034700049443A25730D0A00393134370000000001
:1034800044656661756C74205665723A25640D0A50
:10349000000000004C1D00202DE9F04115460F46AC
:1034A0000446FEF7BBF92820FEF782F9FEF702FA80
:1034B000200AFEF77DF9FEF7FDF9E0B2FEF778F994
:1034C000FEF7F8F9FEF7AAF92920FEF771F9FEF7E1
:1034D000F1F900246E1E09E0B44201D0012000E0A1
:1034E0000020FEF729F93855641CE4B2AC42F3D34E
:1034F000BDE8F041FEF7B8B92DE9F14F714E002457
:103500004FF00A0B307882B0401CC0B2B0FBFBF227
:103510000BFB12016C4DA146307009B10A287BD219
:1035200048F24E17012202A93846FFF7B5FF9DF871
:1035300008004FF0000801060AD500F00F00062829
:1035400006D28DF80480012201A9384600F0E8F87F
:103550009DF8080001075FD000F00F0106295BD23B
:10356000FF2088408DF80400C04395F820A040F06B
:10357000C00085F82000A889A882E88A534FE88314
:103580004FF0010995F8201009FA04F0014256D0D5
:103590004F480422694630F81400FFF77DFFB888D1
:1035A000A0F5AA41103904D0A0F5864142391FD0B8
:1035B00045E095F830009DF80110C0079DF8000027
:1035C00000EB012105EB440009D0C1829DF80210F7
:1035D0009DF8032001EB0221C1F548712EE08181A5
:1035E0009DF802109DF8032001EB0221C18226E024
:1035F00095F83000C00710D09DF802009DF8031028
:1036000000EB012105EB4400C1829DF800109DF8FC
:10361000012001EB022111E02CE09DF800009DF853
:10362000011000EB012105EB4400C1829DF802105E
:103630009DF8032001EB0221C1F588718181641C92
:10364000E4B2052C9ED3A9893A884FF00109284697
:10365000914203D8C18A7A88914209D99DF808100D
:1036600001F00F0101290CD9C1898181018BE98207
:1036700086F800809DF8080000F08F0080280AD0AE
:1036800018E0818A8181C18BC18280218DF8081068
:1036900085F820A0EEE795F82000010602D520F07D
:1036A000800005E04FF6FF71A981E98200F0E0009B
:1036B00085F820003078F02801D986F800B0484617
:1036C000BDE8FE8F39000020400000204C1D002086
:1036D000227A020808B500218DF800108DF801004B
:1036E0000E489DF80020435C491C1A44C9B28DF86D
:1036F0000020B829F5D3D0B2C043401C8DF800009B
:10370000B822064948F2470000F00AF8022269464A
:1037100048F2FF0000F004F8002008BD6A790208B2
:103720002DE9F04115460E4604460027FEF776F8CF
:103730002820FEF73DF8FEF7BDF8200AFEF738F81E
:10374000FEF7B8F8E0B2FEF733F8FEF7B3F800245E
:1037500008E0305DFEF72CF8FEF7ACF8070003D167
:10376000641CE4B2AC42F4D3FEF77EF83846BDE800
:10377000F08100002DE9F04FDFF828B191B04FF053
:10378000FF35DBF80030B3F922100691DE69B3F99A
:103790002490F469A189814206D8E289824203D348
:1037A000471AD4F8008012E0D4E9018100296FD0D3
:1037B0000A8882426CD84D88854269D3801A82B2C9
:1037C000486800EB8200B0F90070B0F90250781C34
:1037D0005ED0307EA17C10FB01FA217CCDE907018F
:1037E000B3F92A60304607F07BFDC0B20E90DBF8DB
:1037F000000007FB0A81A37C826B0127CDE904123C
:10380000CDE90273C069089AC17E807ECDE90001CE
:10381000DDE90603494606F089FD681C18D046F02C
:10382000020007F05DFDDBF80000A37C05FB0A81C8
:10383000826BCDE90273CDE90412C069089AC17E9A
:10384000807ECDE90001DDE90603494606F06EFD04
:10385000DBF800005D46C069417E007E814214D9DC
:10386000022E12D086F0040007F03AFD2868C069E5
:10387000027EC37E12FB0391437E857E089A0698E2
:103880004B4412FB050207F047F80E9807F028FD9D
:10389000DBF80000627C418C1144418411B0BDE82A
:1038A000F08F00005802002004480068C069C06919
:1038B00009B1027C0A60407C704700005802002079
:1038C000022008807047C06982898A4202D8C28972
:1038D0008A4210D2806880B102888A420DD843881B
:1038E0008B420AD3406800EB8100A0EB8200B0F964
:1038F0000000002801DB0120704700207047000015
:103900002DE9F043304C034687B020681946B0F9E2
:103910002A60C069C06900F086F8002850D041686C
:103920000088181A01EBC0053046AF7807F0D8FCC4
:10393000814620686A680123816BCDE90237CDE9B1
:103940000421C169CB7E8A7ECDE900230B7EB0F9CC
:1039500024102A78B0F9220006F0E8FC2068C0693B
:10396000417E027E91421FD9C07E11FB00F812FBFE
:1039700000F7022E18D001F0BEFA064601F084FAD4
:1039800002F0CFFA21682A78CB69B1F92200DB7EF8
:1039900012FB0302B1F9241001EB0803394406F0CD
:1039A000BBFF304602F0BDFA484607F099FC20689C
:1039B0006A78C369B0F922109B7E12FB031141841F
:1039C00007B0BDE8F08300005802002030B50F4C6E
:1039D00005460B4620682946C069C06900F023F8F7
:1039E000002812D04168008824682A1A0120E4695E
:1039F00000EBC200085CA47E10FB04F0002B04D096
:103A000011F8321011FB04F1196030BD580200208A
:103A100001200880704700B5C06900F004F8002854
:103A200000D0012000BD06E002888A4202D8428808
:103A30008A4202D280680028F6D1704770B500250E
:103A4000124C19E020691249C5EB051600EBC600BF
:103A500070220968001DFCF7DDFE2069002140F896
:103A6000361000EBC60000F10C018161011D0A1D3A
:103A7000C0E90F126D1C4164A0688542E2DB01F0D1
:103A800025FBBDE8704002F0E9BE0000A40800205C
:103A90005802002070B50F490D480860084603F031
:103AA000DBFE0C4C143CA068C0EB0010C50028469F
:103AB00000F0A6F82A460021206103F046FF4FF0EF
:103AC000FF30206002F030FFBDE8704019F0D4BD37
:103AD00045E20108B8080020F8B50C0005460FD0F3
:103AE00001F0F4FA204600F017F8060010D000F0BC
:103AF00015F9224600902DB12946FCF704FE04E09A
:103B00000020F8BD002103F020FF684600F070F9A6
:103B100002F0A4FE3046F8BD10B5040009D001F053
:103B2000D5FA204613F05EFB044602F097FE2046CD
:103B300010BD002010BD38B5054601F0C7FA284673
:103B4000FFF7EAFF040009D000F0E8F82A46002158
:103B5000009003F0FAFE684600F04AF902F07EFE9B
:103B6000204638BD024A106021F0030050607047C3
:103B70006C0D012010B5040016D001F0A7FA0B4817
:103B8000406B10F8341059B1022909D2042101EB1D
:103B9000C4014158486813F0EDF920461CF0F2F8D2
:103BA000BDE8104002F05ABE10BD0000AC0C012070
:103BB000002805D0034AD16B016001B14860D06391
:103BC00070470000AC0C012010B5044601F07EFAED
:103BD0002068FFF7CFFF00202060BDE8104002F012
:103BE0003DBE000070B50D460646002405E000BF4E
:103BF00006EB8400FFF7E8FF641CAC42F8DB70BD05
:103C00002DE9F041044619F0DDFF2848E41C24F0BA
:103C10000305016C2D1DA94200D90D46C46B13E0AC
:103C200054F8042CAA420ED184B1216809B162680B
:103C30004A60616809B122680A60C26BA24231D150
:103C40002168C1632EE02468002CE9D18046816B95
:103C5000C0680F1857F8040C3E1A306838B10020BD
:103C60001CF050F957F8040C3E1A3068D0B970684F
:103C7000A84217DB3044441B3046241D1CF0FAF8E0
:103C8000D8F80C10491BC8F80C10D8F814102944A7
:103C9000C8F814107068401B02D0314613F06AF95E
:103CA00044F8045C2046BDE8F0810000AC0C012023
:103CB00010B5002419F086FF0C490F2001EBC0025B
:103CC000526C1AB101EBC000406C08E0401EF5D503
:103CD00008E04168A14200D90C46806810B18068B4
:103CE0000028F6D1A4F10C0010BD0000AC0C01209E
:103CF000002138B10449042202EBC000496B085886
:103D000041680C3908467047AC0C012002488169B3
:103D1000491C816170470000AC0C01200549CA694B
:103D2000521CCA61496B01EBC0010A78521C0A702F
:103D300000F076B8AC0C01207CB506460C4608466F
:103D4000FFF7EAFE050020D0FEB13046FFF7D0FFB6
:103D5000A04200DA044601F0B9F92846FFF7DEFF79
:103D600000903046FFF7DAFF0146019022460098A6
:103D7000FCF7C9FC684600F03BF801A800F038F8F1
:103D80003046FFF7F7FE02F069FD28467CBD0000D3
:103D900010B501F09BF9FFF78BFF64220849B0F5DD
:103DA000800F04D990FBF2F4086A444303E0096AE7
:103DB0004143B1FBF2F402F051FD204610BD00007A
:103DC000AC0C01200549102805D94A68B0EB520F08
:103DD00002D3500800E01020886070476C0D01206D
:103DE00002488169491E816170470000AC0C0120C6
:103DF0000A4902684B6B52F8082C03EBC202137895
:103E0000022B03D3CB690BB15B1ECB611178491E2A
:103E1000117000210160084670470000AC0C0120C1
:103E2000002806D00349042202EBC000496B085861
:103E300008307047AC0C01202DE9FC414FF0000622
:103E40000B465FEA000834462BD032B111461846C3
:103E5000FFF742FE060000D101244046FFF75EFF57
:103E60000090078845686846FFF7C2FFCCB9B900E3
:103E70002846091DFFF760FF050015D0FFF74EFF2C
:103E8000019040F8276001A8FFF7B2FF4046FFF716
:103E900045FF009045600188491C01806846FFF796
:103EA000A7FF2046BDE8FC813046FFF763FE0124F2
:103EB000F7E70820FFF73FBE7CB5050023D0FFF7EA
:103EC0002DFF00904068C0B1FFF728FF002401904B
:103ED00005E0019800EB8400FFF776FE641C009873
:103EE0000088A042F5DC01A8FFF782FF0098001DC2
:103EF000FFF76AFE0099002008806846FFF778FF08
:103F00002846FFF737FE7CBD7CB50C46FFF706FF61
:103F100000900188A14220D94568F5B101F0D6F89A
:103F20002846FFF7FBFE019000EB8400FFF74CFEF4
:103F300000990888401E80B20880401E019905E063
:103F400001EB8402526841F82420641C8442F7DDAE
:103F500001A8FFF74DFF02F081FC6846FFF748FF1C
:103F60007CBD38B5002430B1FFF7D8FE009004883E
:103F70006846FFF73DFF204638BD38B50D460024A2
:103F800048B1FFF7CBFE2946009000F016F8044632
:103F90006846FFF72DFF204638BD38B50D46002492
:103FA00048B1FFF7BBFE2946009000F018F8044620
:103FB0006846FFF71DFF204638BD38B50D4601881D
:103FC0000024A94209D9406838B1FFF7A7FE009044
:103FD00050F825406846FFF70BFF204638BD10B566
:103FE0000024FFF7EAFF10B1FFF798FE04462046D1
:103FF00010BD000010B5044601F068F8044904EB58
:10400000840001EB8000447902F028FC204610BDBA
:10401000E80D01202DE9FC5F8946044601F056F8C1
:10402000484600F075FF2C4E09EB8907824656F88A
:104030002700019029484FF00108016841B927493C
:10404000C0F80080091D26480860084603F004FCFB
:10405000214A09EB89015FEA0A0002EB81051BD0C6
:1040600001F0FCFE83464FF07F4001F04FFF00F06F
:10407000B9F800221146206800F04AFC2068428806
:104080000188504601F09CFF46F8274085F80580DE
:10409000584601F0E3FE17E046F8274085F8058012
:1040A0002869464618B101F009FE0020286174B164
:1040B0000096E868A1684B46421AA8686168411AF0
:1040C000206801F055FE286148461CF009FE02F008
:1040D000C5FB0198BDE8FC9FE80D01209C02002073
:1040E00099E1010870B514460D46064600F0EEFF52
:1040F000204600F00DFF0300174804EB840109D0AF
:1041000050F8210041688068711A2A1A184601F097
:1041100047FF1CE000EB8104A268B24201D00122FB
:1041200000E00022E368AB4201D0012300E000235D
:104130001A430CD0236943B150F8210081684068CC
:104140006A1A311A184601F0DEFDC4E90265BDE8BD
:10415000704002F083BB0000E80D012002480068B7
:10416000407C00F003B800005802002010B504465F
:1041700000F0ACFF0A4804EB840100EB810301224C
:104180005A7150F8210030B120461CF0A9FDBDE85D
:10419000104002F063BB21460248FFF73BFFF6E701
:1041A000E80D0120F058050810B5C2B2CBB2D21A02
:1041B00000D5524293B25B43C0F30722C1F30724F8
:1041C000121B00D55242000C92B2A0EB114002FB30
:1041D000023200B2002801DA404200B280B200FB95
:1041E000002010BD10B50021084600F041FF43F645
:1041F000FF725042BDE8104013460146AFF3008005
:104200002DE9FC411C4615460E46074600F05EFFB0
:10421000042007F065F880461248C068C16C006D44
:104220000F4406440D440444ADF80070ADF804504A
:10423000ADF80260ADF80640684612F005FA07E0F6
:1042400023462A463146384606F066FB12F0B0F99E
:104250000028F5D1404607F043F802F0FFFABDE828
:10426000FC8100004C020020B0F90630B0F90420B7
:10427000B0F90210B0F90000FFF7C2BF2DE9F84312
:104280001C00DDE9089816460F46054602D111F0DC
:104290007BF8044600962E6843464A462146284647
:1042A000B047060039D011F064F88146698A30467B
:1042B00010F0F6FC304612F045F8484612F042F88D
:1042C0004FF000080CE000BFCDF8008055F81CCF7F
:1042D00000231A4649462846E04700B312F032F858
:1042E0007F1E002FF0DC1D21484611F05EFE601C91
:1042F00012D000F0EBFE11F08BF830B1FFF790FD1B
:104300008469B44201D02000F8D1B44202D03046D2
:1043100011F05CFF02F0A2FA3046BDE8F8833046A7
:1043200010F01CFF0020F8E72DE9F0411C4616466E
:104330000D460746022B02DB0020BDE8F0811C2061
:10434000FFF75EFC0028F8D00DB105610AE0094ACC
:1043500052F8241009B905E011460A68002AFBD179
:104360000969016184618682002101604160C0E9C0
:104370000217E2E77002002070B51D46FFF7D4FF78
:10438000040009D000F00EF8E068006820B9034886
:10439000006800EB85008465204670BD580200204F
:1043A000FFF706BC70B590B38269022A30DA1E4C62
:1043B00054F8221019B944F8220032E019464B682B
:1043C000002BFBD106E0CB68C5681B682D68AB42AB
:1043D00003DD09680029F6D11AE0C1B1CB68C668CF
:1043E0001B683668B3420CD1838A012B05D008E0E4
:1043F0001946DB681B68AB4203DB0B68002BF7D167
:1044000029B14B6833B118604A68426004E0FFE7A5
:10441000012070BD44F822004860884200D100218C
:104420000160002070BD00007002002010B503E0A4
:104430000468FFF7B7FF20460028F9D110BD1CF033
:1044400027BF00002DE9F0410026DFF834800D4F32
:10445000354600BF58F8254009E0E0680068385C40
:1044600020B120461CF014FF266026462468002C4C
:10447000F3D16D1C022DEDDB3046BDE8F08100006C
:10448000700200206CD10408022801DB0020704774
:10449000054A52F8200004E0C26812688A42F6D049
:1044A00000680028F8D1704770020020022801DB64
:1044B00000207047054951F8200004E0C1680968F0
:1044C0000029F6D000680028F8D17047700200205B
:1044D000F8B5074615460E460C20FFF72CFB0400E6
:1044E0000FD000F0F3FD2046FFF718FC06490090BE
:1044F000C0E90017068145816846FFF779FC02F0A4
:10450000ADF92046F8BD00001C6D05082DE9F84303
:104510001D461646884604000CD0FFF7FFFB0090AE
:10452000006807686846FFF763FC2B463246414641
:104530002046B847BDE8F88338B504004FF00000C6
:104540000AD02046FFF7EAFB0090006845686846FD
:10455000FFF74EFC2046A84738BD38B504004FF0A1
:1045600000000AD02046FFF7D9FB0090006885685C
:104570006846FFF73DFC2046A84738BD2DE9F041CD
:10458000044602F0BBF906191EE000BF00F0CAFBAA
:10459000052F00DD052700F099FD11480568FFF79C
:1045A000B5FB2C0017D000BF02F058F9641EFBD1F8
:1045B000384602F087F91DB100F088FD6D1EFBD171
:1045C000FFF70EFC02F04AF902F098F9371A002FB3
:1045D000DCDCBDE8F081384602F074F9F0E7000059
:1045E000B00800202DE9FC4706005FD000F06EFD0A
:1045F00000F0A6FC3C4C81462068B0F9228000F017
:10460000FFFC216807468A8CD01B888441E000BFEC
:1046100047F6FF71304602F089FF82460146304678
:1046200002F05AFF2168054691F82C0000F00300C3
:10463000012841D002283BD000204A8C101A48841F
:10464000ADF800006A1E1044ADF80400888CADF887
:104650000200A9F101010844ADF806006A4651467E
:10466000304602F03BFB2168BDF8020088845146C9
:10467000304601F0E1FF064430780A281ED00D28AC
:104680001CD0BDF80000216828444884307818B157
:10469000761C30780028BBD12068818C3944818415
:1046A000818D21F00301818502F0D8F8BDE8FC87F7
:1046B00005EBD5704010C0E72846BEE7206890F8AB
:1046C0002C1001F0030101290BD0022909D0018C23
:1046D000418431780A29D9D1828C02EB0901818485
:1046E000D4E7A0F82280F4E75802002070B5144601
:1046F0000D46064600F0EAFC0548006845848484BF
:104700003046FFF76FFFBDE8704002F0A7B8000029
:104710005802002047F6FF7300F044B82DE9FF4728
:104720001F460C9E90460D46814696B30024009489
:10473000019400F0CBFCADB128680090686801904E
:1047400017480099016001994160284611F0EAFD7F
:10475000040007D00246294602A802F054FF02A82E
:1047600011F0E0FD30461CF07BF9054671686846A3
:1047700088473B4642466946484602F007FB2046CA
:1047800011F0D0FD28461CF06BF902F067F8BDE887
:10479000FF87FFE704B0BDE8F04700F003B8000072
:1047A000440800202DE9FC411F4690460D460600B6
:1047B0004FF000041AD000F089FC65B1284611F0D2
:1047C000B1FD040007D002462946684602F01BFFEF
:1047D000684611F0A7FD3B4642462946304602F0A6
:1047E000D5FA204611F09EFD02F038F8BDE8FC81B4
:1047F0002DE9FF4F87B09046894607007DD000F035
:1048000065FCD9F80040D9F8045021B228B2401A0A
:10481000401C029000F094FB064618F00C0F1ED0CE
:1048200038460A9A029902F023F808F00C0104298C
:1048300004D0082902D00C2911D104E0291400FB6E
:104840001610401C09E02114C1EB254200FB162084
:10485000401C00EBD07001EB600060F31F44484641
:1048600011F060FD5FEA000B09D00246494604A83A
:10487000CDE9044502F0C7FE04A811F053FDA6F1EE
:10488000010A38460A9A029903F02EF803900AEBBF
:10489000244060F31F45CDE900453846039902F0F6
:1048A0001BFE18F003010ED001292CD002290ED1D5
:1048B000B9F90420B9F90010521A101A00EBD0709F
:1048C00001EB600001E0B9F80000ADF800006A46B5
:1048D0003846039902F002FA38460A9A029902F021
:1048E000F9FF074406EB244060F31F4438780028A2
:1048F000C7D1584611F016FD00E001E001F0AEFF0F
:104900000BB0BDE8F08FB9F80410081A401CDCE7C2
:104910007CB514460D46064600F0D8FB11480068E9
:10492000C16C006D0D4404443188681E0844ADF824
:104930000400ADF800507188601E0844ADF8060010
:10494000ADF80240684611F07FFE06E02246294697
:104950003046FEF7C3F911F02BFE0028F6D101F026
:104960007DFF7CBD580200201CB50A460146684602
:1049700002F065FF00F0AAFB2548BDF800100068B2
:1049800030F84C2F1144ADF80010BDF802108288A9
:104990001144ADF80210BDF8041002881144ADF8BE
:1049A0000410BDF8061080880844ADF8060068467B
:1049B00011F04AFE27E000BFBDF900400BE000BF48
:1049C000BDF90210204605F02BFEBDF90610204669
:1049D00005F026FEA41CBDF90400A042F0DABDF9E2
:1049E00002400AE0BDF90000214605F019FEBDF9BC
:1049F0000400214605F014FEA41CBDF90600A042E7
:104A0000F0DA11F0D5FD0028D6D101F027FF1CBD4A
:104A1000580200202DE9F04F87B09B46DDE9109841
:104A200092460C46054600F051FB16480168C86CDA
:104A3000096D47190E1900EB0A0501EB0B04ADF8DF
:104A40001070ADF81450ADF81260ADF8164004A81F
:104A500011F0FAFD88B1DFF830B04FF0000ACDE96F
:104A60000098CDE902BA2B4622463946304616F068
:104A700093F911F09DFD0028F1D101F0EFFE07B090
:104A8000BDE8F08F58020020B9A600082DE9F04FCC
:104A900087B09B46DDE9109892460C46054600F02B
:104AA00015FB16480168C86C096D47190E1900EB13
:104AB0000A0501EB0B04ADF81070ADF81450ADF819
:104AC0001260ADF8164004A811F0BEFD88B1DFF801
:104AD00030B04FF0010ACDE90098CDE902BA234683
:104AE0002A463146384616F057F911F061FD002884
:104AF000F1D101F0B3FE07B0BDE8F08F58020020FD
:104B000031A500082DE9FC4114460D46064600F08B
:104B1000DDFA114F3968C86C096D054404440E4430
:104B2000ADF80050ADF80440ADF80260ADF8066095
:104B3000684611F089FD08E0386822463146406E2B
:104B400003682846984711F033FD0028F4D101F09E
:104B500085FEBDE8FC810000580200202DE9F041EF
:104B60001C4615460E46074600F0B0FA0C48016890
:104B7000C86C096D074405440E440C44002011F034
:104B800063FD07E023462A4631463846FEF7F4F82F
:104B900011F00EFD0028F5D1BDE8F04101F05EBE38
:104BA000580200207CB50C46064600F08FFA0F4DE7
:104BB0002868C16C006D0E440444ADF80460ADF883
:104BC0000060ADF80640ADF80240684611F03CFDCB
:104BD00007E028682146406E42683046904711F051
:104BE000E7FC0028F5D101F039FE7CBD5802002019
:104BF0002DE9FC411C4616460D46074600F066FAB4
:104C00001A480168087ECA6C096D17440D440C44AB
:104C1000401E391A1644ADF800103118ADF80410D2
:104C2000291A2044ADF80600ADF80210684611F0CC
:104C30000BFD15E032462946384605F079FC324630
:104C40002146384605F074FC621E691C384605F0A2
:104C500033FD621E691C304605F02EFD11F0A8FCE4
:104C60000028E7D101F0FAFDBDE8FC8158020020E0
:104C700070B58EB015460E46044600F027FA214660
:104C800006A802F0B9FDBDF81A30642B0CD1002043
:104C900000900AAB01AA214606A802F001F82A46B4
:104CA000314601A8FFF734FE01F0D8FD0EB070BD0B
:104CB0007CB514460D46064600F008FA0F48006819
:104CC000C16C006D0E4405440444ADF80060ADF8BD
:104CD0000460ADF80250ADF80640684611F0B4FC2F
:104CE00006E022462946304605F0E6FC11F060FC5D
:104CF0000028F6D101F0B2FD7CBD00005802002072
:104D000070B50C46054600F00DF910B10121C0E95F
:104D1000001400F0DBF9284611F0CCFBBDE8704030
:104D200001F09CBD10B5002400E0012400F004F85F
:104D30000028FAD1204610BD094810B500680024AB
:104D400010B1804700B1012410F092FA00B10124A3
:104D50000448006810B1804700B10124204610BD0E
:104D60007C020020780200202DE9FC411C461546FB
:104D70000E46074600F0AAF910480068C16C006DA5
:104D80000F4406440D440444ADF80070ADF80450DF
:104D9000ADF80260ADF80640684611F055FC07E03A
:104DA00023462A463146384605F0B6FD11F000FC90
:104DB0000028F5D101F052FDBDE8FC815802002029
:104DC000B0F90630B0F90420B0F90210B0F90000D3
:104DD000FFF7CABF08B50B46002805D000928188AE
:104DE0008268C08800F001F808BD10B50828029C50
:104DF00030D008DC04FB01F401280AD0022813D0CB
:104E0000042804D11CE0102828D020282CD0002011
:104E100010BD04EBD30003F00701105CC1F10701E2
:104E2000C84000F0010010BD04EB93000621105CA7
:104E300001EA4301C1F10601C84000F0030010BDC2
:104E400004EB5300D907105C02D000F00F0010BD36
:104E5000000910BD04FB0130105C10BD481004FBBC
:104E6000003032F8100010BD881004FB003052F8FA
:104E7000200010BD034951F82000C1688A6A08214A
:104E8000104700007002002010B500F01FF905F077
:104E900073FD05F045FE044601F0E0FC204610BD20
:104EA00010B5044600F012F9054800210068C069F9
:104EB000426820469047044601F0D0FC204610BDD1
:104EC0005802002070B50C46054600F0FFF8064871
:104ED00021460068C069426828469047044601F0B0
:104EE000BDFC204670BD000058020020002801D003
:104EF00010F01CBA704710B500F0E8F805F044FD5A
:104F000005F00EFE044601F0A9FC204610BD00008D
:104F10000021022802D2024951F8201008467047A9
:104F2000800800201FB500210191029103912A21E0
:104F30000091694611F02AF8039804B010BD0000F2
:104F400010B500F0C3F804480068C069447E01F061
:104F500085FC204610BD00005802002070B50D46AB
:104F6000044600F0B3F814B909480068C46929463A
:104F700094F82000A87094F82200287194F8210079
:104F8000E870A26820469047BDE8704001F066BC1A
:104F90005802002010B500F099F802F093FA044688
:104FA00001F05CFC204610BD70B514460D46064667
:104FB00000F08CF822462946304605F051FD10B12C
:104FC000002028602060BDE8704001F047BC70B54B
:104FD0000C46054600F07AF82146284602F0D0FA41
:104FE000BDE8704001F03ABC10B5044602F0BAFAD0
:104FF00001462046BDE8104002F06EBA01F07EBCCA
:1050000010B5002400F062F80B48006890F82C10EE
:1050100001F00C01042904D0082906D00C2907D17D
:1050200003E0C069047E641E02E0C069007E44089B
:1050300001F014FC204610BD58020020417EC07EC5
:1050400011FB00F07047017EC07E11FB00F070473D
:10505000024951F820000069006870477002002082
:10506000024951F820000069406870477002002032
:1050700070B50D46044600F029F8204618F0B4FB40
:105080000446284618F0B8FB044301F0E7FB20462D
:1050900070BD000010B501F033FD0A492E200870E4
:1050A00001F032FC084818F03FFD05F05FFD0446B2
:1050B0000021084600F0B0FF10F0ECFCFEF7BEFC4B
:1050C000204610BD4C020020780D012070B5184C10
:1050D000E06820B101F00AFC6168884204D001F068
:1050E00041FC01F003FC6060E068401CE0600128C6
:1050F0001CD118F0C1FA05462068854216D0002858
:1051000013DBFFF79FF901462068C0EB001220690E
:1051100000EBC2025167C5EB0511064A00EBC10066
:10512000011D1160406FFFF781F9256070BD00001F
:10513000A4080020580200201CB5040004D10E4829
:105140000068046E002C16D0FFF7C0FF2046FEF763
:10515000E5FD009044696846FEF74AFE4CB12046E2
:10516000FEF7DCFD019081688968884701A8FEF799
:105170003FFE01F073FB1CBD5802002001490A46A6
:1051800000F002B801F0FFFF2DE9F04387B01546AB
:105190000C465FEA000846D0FFF798FF002000F0B9
:1051A000E3FE814621480068066E4046FEF7B6FDE4
:1051B00000900068806900F051FE074640F6FF70DD
:1051C000C44204D10098B0F90440B0F906500098E8
:1051D000611E0289ADF804401144ADF80810418900
:1051E000681E0844ADF80650ADF80A000FF01AFE2C
:1051F0006846FEF7FDFD01A811F026FA06E02A46F2
:105200002146404600F0D6FB11F0D2F90028F6D135
:10521000384600F023FE304600F0D8F9484600F04A
:10522000A3FE01F01BFB07B0BDE8F083580200208D
:105230002DE9FE4F984691468A46834600270C9EEC
:10524000FFF744FF184819490068407C51F8204096
:10525000E1680968042903D02468002CF8D100E033
:105260001CB9FFF723F904001BD0E0680121C26AD2
:1052700020469047050011D02469A0688047401C53
:1052800002D10B4C46F001060096CDE9015443468D
:105290004A465146584600F02DFA074601F0DEFA1C
:1052A0003846BDE8FE8F0000580200207002002042
:1052B0001064050838B504001CD0FFF707FF0E483E
:1052C0000068006EA04201D100F0BAFD2046FEF752
:1052D00025FD0090406908B101F0A9FA0098006826
:1052E000FFF75EF86846FEF783FD2046FEF742FCB6
:1052F00001F0B4FA38BD0000580200202DE9FF4F3C
:10530000DFF83891074683B0D9F800009A468B46FB
:10531000447C4B4800570128204606DD05F0C8FBB9
:105320000546204605F0D0FB05E005F0AFFB05463D
:10533000204605F0B1FB04461FB302A901A8FFF700
:1053400046FEB7F90000002800DA0020B7F9026035
:105350008046002E00DA002601984119B7F90400B2
:10536000491E18F088FD054602980119B7F9060094
:10537000491E18F080FDA5EB0802841B521C641C1A
:1053800003E04FF0000846462A46BAF1000F01D16B
:10539000C4F1000A002A4FDD002C4DDD109800906A
:1053A000534631464046FFF743FF5FEA000A10D0FC
:1053B00000F0C6F80746A04206D0D9F80000806C7D
:1053C00010B1322111F0F0FC504600F0FFF800253A
:1053D00021E0594605988847012007B0BDE8F08FC5
:1053E000611BB94202DA504600F0D4F83DB172199F
:1053F0004146504600F012F95046FFF79DFE5946CF
:10540000059888470F48016809B100208847504631
:10541000FFF7B4FE3D44A542E2DB5046FFF74AFFEA
:10542000002000F0D3F8A74206D0D9F80000806C25
:1054300010B1332111F0B8FC0020CEE75802002053
:1054400090020020F808002038B505004FF0000455
:1054500011D0FFF73BFE2846FEF760FC0090006885
:1054600000698068804706F067FB04466846FEF7DF
:10547000BFFC01F0F3F9204638BD38B504000ED06A
:10548000FFF724FE2046FEF749FC00F118040090C7
:105490006846FEF7ADFC01F0E1F9204638BD00207A
:1054A00038BD000038B504460025FFF70FFE1CB9D3
:1054B00008480068046E44B12046FEF72FFC0090B7
:1054C000B0F904506846FEF793FC01F0C7F928468E
:1054D00038BD00005802002038B504460025FFF70B
:1054E000F5FD1CB908480068046E44B12046FEF77B
:1054F00015FC0090B0F908506846FEF779FC01F001
:10550000ADF9284638BD00005802002038B50446E1
:105510000025FFF7DBFD1CB908480068046E44B1A4
:105520002046FEF7FBFB0090B0F906506846FEF7F8
:105530005FFC01F093F9284638BD000058020020B6
:1055400038B504460025FFF7C1FD1CB908480068BE
:10555000046E44B12046FEF7E1FB0090B0F90A501A
:105560006846FEF745FC01F079F9284638BD000091
:105570005802002070B505460024284612F060FA53
:10558000641C18B1BDE8704000F07AB8052CF4DB5B
:1055900070BD000038B50C46050004D10A4800680B
:1055A000056E002D0FD0FFF791FD2846FEF7B6FBE4
:1055B0000090B0F90A10A14200DD44816846FEF770
:1055C00017FC01F04BF938BD58020020F8B505462C
:1055D000FFF77CFD104E3068046ECDB10CB100F0C9
:1055E0002FFC0FF073FD2846FEF798FB0090316802
:1055F0000D660068FEF7D6FE6846FEF7F9FB06F07A
:10560000CDF805F0CBFD00BF01F028F92046F8BD2C
:1056100000F016FCF8E70000580200207CB51546A3
:105620000E46040004D115480068046E002C24D0F6
:10563000FFF74CFD2046FEF771FB2DB20090C580B0
:1056400034B2848005F0AAFD0098406980B1FEF76D
:1056500065FB009A0190B2F908108180B2F90A2026
:10566000C28011B10AB10480458001A8FEF7C0FBD9
:105670006846FEF7BDFB01F0F1F87CBD5802002042
:1056800001490A4600F002B801F0FFFF7FB5154658
:105690000C4606002DD0FFF719FD3046FEF73EFB05
:1056A00040F6FF710190CC4203D1B0F90440B0F94B
:1056B00006500289611E1144ADF80840ADF80C1087
:1056C0004189681E0844ADF80E00ADF80A5001A8E3
:1056D000FEF78EFB02A810F0B7FF06E02A4621462F
:1056E000304600F04FF910F063FF0028F6D101F0CA
:1056F000B5F87FBD2DE9FF4FDFF8E8B083B01C4659
:10570000DBF80010DDE9106092464FF000084B7C9A
:1057100042461299FEF708FE050060D028698068AD
:10572000804706F009FA81460AFB09F1C91DCF0836
:10573000FEF72EFBF10705D1C11700EB9170801029
:1057400000EB4000002C09DC1FB11838B0FBF7F06B
:1057500000E000206442A04200DC0446F00707D1CC
:105760000090DDE903012346524600F0E5FF804644
:10577000002C03DC2846FEF713FE30E004FB07F0A4
:105780001830F10702D0FEF7C7F901E0FEF7D3F9B0
:1057900006001CD0FEF7C2FA0190056003998180D3
:1057A0000499C180A0F808A04481C0F81480C0E921
:1057B000037901A8FEF71CFB1298AE602861DBF8A4
:1057C0000000407CA861304607B0BDE8F08F284655
:1057D000FEF7E6FD5FEA080001D0FEF7CBF90020F6
:1057E000F2E70000580200200149086070470000FD
:1057F000F80800202DE9F74F8EB0144689460E9820
:10580000FEF78CFA0990B0F908B0B0F90A600068A8
:10581000006940680C9009A8FEF7EAFA564D574F08
:105820002868407C57F82000C1688A6A08219047A0
:105830000790182801D3202007902868407C57F84B
:1058400020000069069003C80B904D48814201D0AA
:10585000012000E000200A90002001F09BF80028C1
:105860007DD1286809EB0B01B0F90C20891A491E7B
:10587000002902DDABEB010500E05D46B0F9081040
:10588000494505DDA1EB090189446D1A089101E044
:1058900000210891002D6BDDB0F90E20A119891AA5
:1058A000491E002902DDA6EB010800E0B046B0F970
:1058B0000A00A04204DD061B3444A8EB060800E001
:1058C0000026B8F1000F53DD089801900DA95F463E
:1058D000DDF830A00E980091FFF7CFFD774300EB85
:1058E000870101982B4601EB800200994846CDE9DB
:1058F00000A1214601F0FAFA0090002838D00A9859
:10590000E8B1DDE906322946009801F0F3F8B0B9B4
:105910000698009FDA46D0F810C0BCF1000F05D001
:1059200004235A4639463846E04708E00B99386860
:10593000884701C7AAF101005FEA000AF6D1009981
:105940000020079ACDE90301059001200090CDE9E0
:10595000010221460346641C2A46484600E007E04F
:1059600004F0E4FCA8F10100761C5FEA0008ABD16A
:1059700011B0BDE8F08F0000580200207002002036
:105980003FAB0008F8B515460E460746FEF7C6F9C8
:10599000009000681621C068426A002090470446C3
:1059A0006846FEF725FA002C03D02A4631463846D1
:1059B000A047F8BDF8B516460F46050012D0FEF711
:1059C000ADF9009044696846FEF712FA2846FFF7E1
:1059D0003BFD0346082800DD2CB1324639462846F7
:1059E0001BF0EAFCF8BD3246394628461BF084FE1F
:1059F000F8BD000002480068407C00F003B80000D9
:105A000058020020F8B51D49096809B1002200E0DC
:105A100002461B498D56012D2EDD1849143151F8CF
:105A200022305B1C41F82230012B25D1A1F1080363
:105A30000026103953F8224051F8221053F82270F2
:105A40007F1C43F82270AF4201D143F8226053F823
:105A500022708F42F2D03D46FEF728FD00900028CC
:105A60000AD0C0682121426A68469047030003D0EB
:105A70002A46214600989847F8BD00004C080020AF
:105A80009002002002480068407C00F003B800004B
:105A90005802002038B51449096809B1002200E015
:105AA00002461249895601291CDD0F49143151F86B
:105AB00022305B1E41F8223014D1083951F82240BF
:105AC000103141F82240FEF7F1FC0090002809D087
:105AD000C0682221426A68469047020002D02146EF
